:10000000000000308A000428840183131F30830518
:1000100007309F0083160514003083120518013045
:10002000A100831685140030831285180130210544
:10003000A2008316051700308312051B013022052C
:10004000031947288316851183128511831606101C
:1000500083120614831686108312861483160611E3
:1000600083120611831686118312861183160612D7
:1000700083120612831686128312861283160613C3
:100080008312061383168613831286179429831608
:1000900005140030831205180130A1008316851461
:1000A0000030831285180130210503197C2883163E
:1000B0008511831285158316061083120614831684
:1000C0008610831286108316061183120615831676
:1000D0008611831286158316061283120612831662
:1000E000861283128616831606138312061383164E
:1000F0008613831286179429831685148312851C10
:10010000A62883168511831285158316061083127F
:100110000614831686108312861483160611831222
:100120000615831686118312861183160612831212
:1001300006128316861283128616831606138312FE
:1001400006138316861383128617942983160515C2
:100150008312051DD02883168511831285118316FD
:1001600006108312061483168610831286148316D3
:1001700006118312061183168611831286118316C7
:1001800006128312061683168612831286168316AB
:100190000613831206138316861383128617942977
:1001A000831605140030831205180130A100831650
:1001B000051700308312051B01302105A2008316AC
:1001C000851700308312851B0130220503190D2984
:1001D0008316851183128511831606108312061467
:1001E0008316861083128614831606118312061155
:1001F0008316861183128611831606128312061245
:10020000831686128312861283160613831206172C
:1002100083168613831286139429831605140030DF
:10022000831205180130A100831685170030831250
:10023000851B01302105031942298316851183127C
:1002400085158316061083120614831686108312F2
:1002500086108316061183120615831686118312E3
:1002600086158316061283120612831686128312CF
:1002700086168316061383120617831686138312B7
:1002800086139429831685178312851F6C2983167C
:1002900085118312851583160610831206148316A2
:1002A0008610831286148316061183120615831690
:1002B0008611831286118316061283120612831684
:1002C0008612831286168316061383120617831668
:1002D0008613831286139429831686138312861736
:1002E0008316851183128515831606108312061452
:1002F0008316861083128614831606118312061540
:10030000831686118312861583160612831206162B
:10031000831686128312861283160613831206171B
:0C03200083168613831286170A2895297D
:02400E001B3F56
:00000001FF
;PIC16F628A
